:03010E00010A00E3
:0400EF007F0F7E0001
:0400F300EF4E601656
:1000F70000000075080B7509BED509FDD508FAEF94
:040107001F70E91E5E
:03010B0080E62269
:10008F0020B1251200EF30B1FD1200EFE50AD39435
:10009F00074003E4F50AAF0A7401A807088002C3FA
:1000AF0033D8FCF4F5A0050A20B0D51200EF30B01C
:1000BF00FD1200EFE50A7014750A07AF0A04A807CE
:1000CF00088002C333D8FCF4F5A080B4150AAF0A38
:1000DF007401A807088002C333D8FCF4F5A080A0F0
:03000000020003F8
:0C000300787FE4F6D8FD75810A02004AFF
:10000F0002008FE493A3F8E493A34003F68001F278
:10001F0008DFF48029E493A3F85407240CC8C333F2
:10002F00C4540F4420C8834004F456800146F6DFC1
:10003F00E4800B010204081020408090010EE47E42
:10004F00019360BCA3FF543F30E509541FFEE493B6
:10005F00A360010ECF54C025E060A840B8E493A37D
:10006F00FAE493A3F8E493A3C8C582C8CAC583CAA8
:10007F00F0A3C8C582C8CAC583CADFE9DEE780BE60
:0101110000ED
:00000001FF
